:04000000F5EF19F00F
:10060000000000803F000020410000C84200007A46
:100610004400401C460050C347002474498096188B
:100620004B20BCBE4C286B6E4EF9021550EC78ADD9
:1006300060CAF249710000803FCDCCCC3D0AD7237F
:100640003C6F12833A17B7D138ACC52737BD378610
:100650003595BFD63377CC2B325F708930FFE6DB20
:100660002E08E53C1E6042A20D010000000A0000B9
:100670000064000000E803000010270000A08601CD
:100680000040420F008096980000E1F50500CA9AEC
:0B0690003B25302E326600636D000039
:10069C005B0E0001676F2DEF09F0250E7C19D8B4A5
:1006AC005AEF03F05CEF03F064EF03F05950D96E8E
:1006BC00DA6A7CC0DFFF592A2DEF09F0000E756F46
:1006CC00000E746F000E736F000E726F70EF03F0FC
:1006DC0072855A2A5AC0F6FF060EF76E0800F550BE
:1006EC00300AD8B46EEF03F07CEF03F05AC0F6FF7B
:1006FC00060EF76E0800F55080EC19F0D8A089EFC3
:10070C0003F08BEF03F0C0EF03F0000E0001756FE8
:10071C00000E746F74C001F075C002F0000E046E10
:10072C000A0E036EADEC19F001C074F002C075F046
:10073C005AC0F6FF060EF76E0800F5CF60F0D00E2B
:10074C0000016025616F626BFF0E6223615174279B
:10075C00625175235A2A5AC0F6FF060EF76E08002E
:10076C00F55080EC19F0D8B0BEEF03F0C0EF03F0F9
:10077C0090EF03F05AC0F6FF060EF76E0800F55026
:10078C002E0AD8A4CCEF03F0CEEF03F009EF04F05F
:10079C000001738D5A2A000E7B6F000E7A6FF8EFF2
:1007AC0003F07AC001F07BC002F0000E046E0A0E5A
:1007BC00036EADEC19F001C07AF002C07BF05AC0A8
:1007CC00F6FF060EF76E0800F5CF60F0D00E0001B4
:1007DC006025616F626BFF0E622361517A27625153
:1007EC007B235A2A5AC0F6FF060EF76E0800F55006
:1007FC0080EC19F0D8B005EF04F007EF04F0D7EF58
:10080C0003F014EF04F0000E00017B6F000E7A6F02
:10081C00738914EF04F073852AEF04F05A2A5A04F2
:10082C000001606F60C0F6FF060EF76E0800F5CF92
:10083C007CF07C51000AD8B43FEF09F0660AD8B4BA
:10084C0011EF04F02DEF09F0070E7315D8B431EF4A
:10085C0004F033EF04F02BEF08F073A938EF04F039
:10086C003AEF04F03EEF04F0000E7B6F060E7A6F49
:10087C006751D96EDA6ADECF76F0DECF77F0DECF55
:10088C0078F0DECF79F0040E672779BF52EF04F0D1
:10089C0050EF04F067EF04F076C001F077C002F07F
:1008AC0078C003F079C004F064EC19F001C076F064
:1008BC0002C077F003C078F004C079F0030E000199
:1008CC007213000E716F000E706F76C001F077C05E
:1008DC0002F078C003F079C004F0000E056E000E33
:1008EC00066E000E076E000E086E92EC17F0D8B074
:1008FC0082EF04F084EF04F017EF05F00001783577
:10090C007935820F706F716BFF0E71237007D8A051
:10091C00710770C001F071C002F0000E046E030E7E
:10092C00036EADEC19F001C070F002C071F070C034
:10093C0007F071C008F0000E0A6E0A0E096ED8ECB2
:10094C0016F007C070F008C071F0000171BFB3EF72
:10095C0004F0B1EF04F0B6EF04F07007D8A0710703
:10096C0070510008A4EC0BF028C06CF029C06DF09D
:10097C002AC06EF02BC06FF06CC00FF06DC010F081
:10098C006EC011F06FC012F076C013F077C014F087
:10099C0078C015F079C016F0C2EC0DF00FC06CF0F9
:1009AC0010C06DF011C06EF012C06FF06CC001F091
:1009BC006DC002F06EC003F06FC004F0000E056E47
:1009CC00000E066E800E076E3F0E086E56EC16F08B
:1009DC00D8B0F3EF04F0F5EF04F0FBEF04F00001F6
:1009EC007007D8A0710717EF05F06CC001F06DC04F
:1009FC0002F06EC003F06FC004F0000E056E000E26
:100A0C00066E200E076E410E086E56EC16F0D8A03E
:100A1C0012EF05F014EF05F017EF05F00001704B25
:100A2C00712B00017BBF26EF05F07B5107E10D0E0A
:100A3C007A5DD8B024EF05F026EF05F043EF05F012
:100A4C0076C041F077C042F078C043F079C044F0F2
:100A5C007A51A4EC11F028C045F029C046F02AC008
:100A6C0047F02BC048F044EC09F041C076F042C08E
:100A7C0077F043C078F044C079F0000171BF52EFB9
:100A8C0005F0715107E10A0E705DD8B050EF05F01A
:100A9C0052EF05F08FEF05F076C001F077C002F051
:100AAC0078C003F079C004F0000E056E000E066EDF
:100ABC00000E076E000E086E92EC17F0D8B069EFBE
:100ACC0005F06BEF05F0E4EF05F076C035F077C07C
:100ADC0036F078C037F079C038F0D3EC15F03550DB
:100AEC00361037103810D8A47EEF05F080EF05F0E3
:100AFC00E4EF05F0000171BF8DEF05F0715109E1D4
:100B0C00020E705DD8A08DEF05F08FEF05F0E4EFCD
:100B1C0005F06CC001F06DC002F06EC003F06FC048
:100B2C0004F05F0E056E700E066E890E076E400E99
:100B3C00086E56EC16F0D8B0A6EF05F0A8EF05F04D
:100B4C00AFEF05F00001F70E7027FF0E7123B4EF25
:100B5C0005F00001F80E7027FF0E71237051A4EC04
:100B6C000BF028C06CF029C06DF02AC06EF02BC0C1
:100B7C006FF076C001F077C002F078C003F079C056
:100B8C0004F06CC005F06DC006F06EC007F06FC0CD
:100B9C0008F02DEC15F001C068F002C069F003C03C
:100BAC006AF004C06BF0000E0001766F000E776FD8
:100BBC00000E786F000E796F20EF06F076C035F0DE
:100BCC0077C036F078C037F079C038F0D3EC15F038
:100BDC0035C068F036C069F037C06AF038C06BF0C9
:100BEC0076C051F077C052F078C053F079C054F011
:100BFC0068C001F069C002F06AC003F06BC004F079
:100C0C00000EE7EC12F001C055F002C056F003C024
:100C1C0057F004C058F041EC19F051C076F052C0B6
:100C2C0077F053C078F054C079F0000E0001716F6A
:100C3C00000E706F010E7C6F7C51040DF350690F28
:100C4C00606F60C0F6FF060EF76E0900F550685D28
:100C5C000900F55069590900F5506A590900F55019
:100C6C006B59D8B03CEF06F03EEF06F040EF06F0C3
:100C7C004AEF06F07C2B0A0E7C19D8A448EF06F03C
:100C8C004AEF06F022EF06F07C517A25606F000ED9
:100C9C007B21616F70516027715161236051745FCA
:100CAC006151755B7A517B11D8B45FEF06F061EF3F
:100CBC0006F064EF06F07407D8A07507030E7215E2
:100CCC00606F000E7315616F60516111D8B471EFD4
:100CDC0006F073EF06F076EF06F07407D8A07507F0
:100CEC0072A57BEF06F07DEF06F0B5EF06F0030E74
:100CFC007215606F000E7315616F60516111D8B47D
:100D0C008AEF06F08CEF06F09DEF06F05950D96E85
:100D1C00DA6A2D0EDF6E592A9DEF06F05950D96E06
:100D2C00DA6A300EDF6E592A7407D8A0750775BFC2
:100D3C00AAEF06F0755106E17405D8B0A8EF06F0DD
:100D4C00AAEF06F094EF06F023EF07F05950D96E96
:100D5C00DA6A200EDF6E592A7407D8A0750775BFA2
:100D6C00C2EF06F0755106E17405D8B0C0EF06F07D
:100D7C00C2EF06F0ACEF06F0030E7215606F000EBA
:100D8C007315616F60516111D8B4CFEF06F0D1EFDC
:100D9C0006F023EF07F05950D96EDA6A2D0EDF6E8C
:100DAC00592A23EF07F068C001F069C002F06AC04D
:100DBC0003F06BC004F07C51040DF350690F606FAD
:100DCC0060C0F6FF060EF76E0900F5CF05F00900BE
:100DDC00F5CF06F00900F5CF07F00A00F5CF08F0C3
:100DEC00E7EC17F001C06CF002C06DF003C06EF0C0
:100DFC0004C06FF06CC001F06DC002F06EC003F067
:100E0C006FC004F00A0E056E000E066E000E076E23
:100E1C00000E086E39EC18F001C06CF002C06DF0D9
:100E2C0003C06EF004C06FF05950D96EDA6A00013D
:100E3C006C51300FDF6ED6EF06F07C077C29D8A4FE
:100E4C002AEF07F02CEF07F0D9EF06F037EF07F099
:100E5C005950D96EDA6A300EDF6E592A7007D8A055
:100E6C00710771BF44EF07F0715106E17005D8B0FE
:100E7C0042EF07F044EF07F02EEF07F07BBF50EF87
:100E8C0007F07B5109E1090E7A5DD8A050EF07F00D
:100E9C0052EF07F056EF07F0080E7C6F58EF07F093
:100EAC007AC07CF07C517A5F000E7B5B7C51D8B4AD
:100EBC0062EF07F064EF07F06AEF07F05950D96E54
:100ECC00DA6A2E0EDF6E592A7C51A4EC0BF028C086
:100EDC0063F029C064F02AC065F02BC066F076C0C0
:100EEC0013F077C014F078C015F079C016F063C019
:100EFC000FF064C010F065C011F066C012F0C2ECC7
:100F0C000DF00FC035F010C036F011C037F012C024
:100F1C0038F0D3EC15F035C068F036C069F037C046
:100F2C006AF038C06BF00BEF08F068C001F069C0D4
:100F3C0002F06AC003F06BC004F07C51040DF35056
:100F4C00690F606F60C0F6FF060EF76E0900F5CFF3
:100F5C0005F00900F5CF06F00900F5CF07F00A00FF
:100F6C00F5CF08F0E7EC17F001C06CF002C06DF0A3
:100F7C0003C06EF004C06FF06CC001F06DC002F0E5
:100F8C006EC003F06FC004F00A0E056E000E066E04
:100F9C00000E076E000E086E39EC18F001C06CF0F4
:100FAC0002C06DF003C06EF004C06FF05950D96EE2
:100FBC00DA6A00016C51300FDF6E592A68C001F0FB
:100FCC0069C002F06AC003F06BC004F07C51040DE0
:100FDC00F350690F606F60C0F6FF060EF76E0900E4
:100FEC00F5CF05F00900F5CF06F00900F5CF07F0B5
:100FFC000A00F5CF08F039EC18F001C068F002C017
:10100C0069F003C06AF004C06BF000017C077C2916
:10101C00D8A413EF08F015EF08F09BEF07F020EFC2
:10102C0008F05950D96EDA6A300EDF6E592A7A07F9
:10103C00D8A07B077A517B11D8A427EF08F029EFB1
:10104C0008F017EF08F02DEF09F07A517B11D8A4B6
:10105C0032EF08F034EF08F041EF08F068516911F5
:10106C006A116B11D8A43DEF08F03FEF08F041EF87
:10107C0008F07A4B7B2B7C51606F616B7A51605D11
:10108C006151800A626F7B51800A6259D8B051EF6E
:10109C0008F053EF08F057EF08F07AC07CF06CEFD3
:1010AC0008F07C51606F616B60517A5D7B51800AF6
:1010BC00626F6151800A6259D8B067EF08F069EF2E
:1010CC0008F06CEF08F07CC07AF07B6B74517511F2
:1010DC00D8B473EF08F075EF08F087EF08F0030E43
:1010EC007215606F000E7315616F60516111D8B489
:1010FC0082EF08F084EF08F087EF08F07407D8A0AF
:10110C00750773AD8CEF08F08EEF08F0A7EF08F0C1
:10111C0074517A5D7B51800A606F7551800A6059F9
:10112C00D8B09BEF08F09DEF08F0A3EF08F07A51D0
:10113C00745F7B51755BA7EF08F0000E756F000EA6
:10114C00746F7C51606F616B7451605D6151800A8A
:10115C00626F7551800A6259D8B0B7EF08F0B9EFD9
:10116C0008F0BFEF08F07C51745F000E755BC3EFA5
:10117C0008F0000E756F000E746F72A5C8EF08F0C2
:10118C00CAEF08F0FCEF08F0030E7215606F000E4A
:10119C007315616F60516111D8B4D7EF08F0D9EFB6
:1011AC0008F0DFEF08F05950D96EDA6A2D0EDF6EB9
:1011BC00592A74517511D8B4E6EF08F0E8EF08F02D
:1011CC002DEF09F05950D96EDA6A300EDF6E592ABC
:1011DC007407D8A0750774517511D8A4F8EF08F0EE
:1011EC00FAEF08F0E8EF08F02DEF09F074517511E3
:1011FC00D8B403EF09F005EF09F017EF09F05950D7
:10120C00D96EDA6A200EDF6E592A7407D8A07507DA
:10121C0074517511D8A415EF09F017EF09F005EF0B
:10122C0009F0030E7215606F000E7315616F60513B
:10123C006111D8B424EF09F026EF09F02DEF09F075
:10124C005950D96EDA6A2D0EDF6E61EF03F05A2A0F
:10125C005A04606F60C0F6FF060EF76E0800F5CFFB
:10126C007CF07C51D8A43DEF09F03FEF09F053EF2F
:10127C0003F05950D96EDA6ADF6A12004450800BC1
:10128C004D6E445044244F6E43AE4FEF09F051EF76
:10129C0009F052EF09F04F804F50D8B458EF09F0D5
:1012AC005AEF09F06FEF09F04F28D8A460EF09F05E
:1012BC0062EF09F06AEF09F0000E416E000E426E0B
:1012CC00000E436E000E446E438E000E446E77EF9C
:1012DC0009F0000E416E000E426E000E436E000EC1
:1012EC00446E4850800B4E6E4D504E18D8B481EF62
:1012FC0009F083EF09F084EF09F04D8C4850482435
:10130C004E6E47AE8CEF09F08EEF09F08FEF09F0BF
:10131C004E804E50D8B495EF09F097EF09F0ACEF32
:10132C0009F04E28D8A49DEF09F09FEF09F0A7EF24
:10133C0009F0000E456E000E466E000E476E000E54
:10134C00486E478E000E486EB4EF09F0000E456EE5
:10135C00000E466E000E476E000E486E4F504E5CEF
:10136C00D8B0BBEF09F0BDEF09F0E4EF09F04DACDC
:10137C00C2EF09F0C4EF09F0C6EF09F0800E4D1A68
:10138C004FC050F04EC04FF050C04EF041C050F026
:10139C0045C041F050C045F042C050F046C042F04C
:1013AC0050C046F043C050F047C043F050C047F027
:1013BC0044C050F048C044F050C048F0000E506E8D
:1013CC004F504EC049F04A6A495E000E4A5A4ABE16
:1013DC00F9EF09F04A5009E11A0E495CD8A0F9EF6F
:1013EC0009F0FBEF09F032EF0AF0415042104310C4
:1013FC004410D8A404EF0AF007EF0AF0010E08EF2E
:10140C000AF0000E506E000E416E000E426E000E81
:10141C00436E000E446E4EC04FF03BEF0AF050A0EE
:10142C001AEF0AF01CEF0AF022EF0AF0D8905030B5
:10143C000109506E24EF0AF0D890503241A029EFE8
:10144C000AF02BEF0AF02CEF0AF0508E44344432A1
:10145C004332423241324F2A4E504F5CD8A039EFC2
:10146C000AF03BEF0AF015EF0AF04DBC40EF0AF022
:10147C0042EF0AF082EF0AF04F50D8A448EF0AF07E
:10148C004AEF0AF054EF0AF0000E416E000E426E65
:10149C00000E436E000E446EA3EF0BF04550412638
:1014AC0046504222475043224850442244A061EF08
:1014BC000AF063EF0AF00FEF0BF050A068EF0AF0A0
:1014CC006AEF0AF070EF0AF0D89050300109506EB4
:1014DC0072EF0AF0D890503241A077EF0AF079EF12
:1014EC000AF07AEF0AF0508E4434443243324232DE
:1014FC0041324F2A0FEF0BF04550415C4650425899
:10150C00475043584450800A496E4850800A495805
:10151C00D8B093EF0AF095EF0AF0C0EF0AF0415003
:10152C00455C496E425046584A6E435047584B6E84
:10153C00445048584C6EFF0E4924416EFF0E4A2011
:10154C00426EFF0E4B20436EFF0E4C20446E800EFD
:10155C004D1A506C5050D8A4B6EF0AF0B8EF0AF000
:10156C00C8EF0AF0010E4126000E4222432244220B
:10157C00C8EF0AF04550415E4650425A4750435A14
:10158C004850445A4150421043104410D8A4D1EF53
:10159C000AF0D3EF0AF008EF0BF05050D8A4D9EFB3
:1015AC000AF0DBEF0AF008EF0BF0000E416E000EB4
:1015BC00426E000E436E000E446EA3EF0BF0D890FB
:1015CC00413642364336443650AEEFEF0AF0F1EF77
:1015DC000AF0F2EF0AF0418050A0F7EF0AF0F9EFB1
:1015EC000AF0FDEF0AF0D8805036FFEF0AF0D890E1
:1015FC0050364F50D8B405EF0BF007EF0BF008EF57
:10160C000BF04F0643AE0DEF0BF00FEF0BF0E5EFC9
:10161C000AF0000E4E6E50AE16EF0BF018EF0BF0FA
:10162C0030EF0BF050C049F07F0E4916D8B421EFC3
:10163C000BF023EF0BF027EF0BF0010E4E6E30EF9B
:10164C000BF041A02CEF0BF02EEF0BF030EF0BF06A
:10165C0023EF0BF04E50D8B436EF0BF038EF0BF005
:10166C0063EF0BF0010E4126000E4222432244226E
:10167C0044A043EF0BF045EF0BF063EF0BF041C0D0
:10168C0049F042C04AF043C04BF044C04CF04C34DB
:10169C004C324B324A32493249C041F04AC042F0D6
:1016AC004BC043F04CC044F04F28D8B460EF0BF063
:1016BC0062EF0BF063EF0BF04F2A4F28D8B469EFB1
:1016CC000BF06BEF0BF073EF0BF04F50D8A471EFE6
:1016DC000BF073EF0BF085EF0BF0000E416E000E6C
:1016EC00426E000E436E000E446E4F50D8A481EF34
:1016FC000BF083EF0BF085EF0BF0000E4D6E4FA04F
:10170C008AEF0BF08CEF0BF08FEF0BF0438E90EF1A
:10171C000BF0439ED8904F30446E4DAE98EF0BF0CB
:10172C009AEF0BF09BEF0BF0448E41C041F042C09E
:10173C0042F043C043F044C044F01200346E34BE57
:10174C00ACEF0BF0AAEF0BF0B8EF0CF0346C34509C
:10175C00800A120FD8A0B5EF0BF0B7EF0BF047EFE4
:10176C000CF0000E0A6E0A0E096E000E046E640E6A
:10177C00036E3450016E026A01BE02063AEC17F099
:10178C0001C007F002C008F0D8EC16F00750040DA9
:10179C00F3CF2CF0240E2C262C50350F2D6E2DC093
:1017AC00F6FF060EF76E0900F5CF13F00900F5CF22
:1017BC0014F00900F5CF15F00A00F5CF16F0000E65
:1017CC000A6E640E096E3450076E086A07BE08066E
:1017DC00D8EC16F00750040DF3CF2EF0480E2E2641
:1017EC002E50350F2F6E2FC0F6FF060EF76E090028
:1017FC00F5CF0FF00900F5CF10F00900F5CF11F07F
:10180C000A00F5CF12F0C2EC0DF00FC030F010C092
:10181C0031F011C032F012C033F030C00FF031C0D3
:10182C0010F032C011F033C012F0000E046E0A0E2C
:10183C00036E3450016E026A01BE02063AEC17F0D8
:10184C000150040DF350350F2C6E2CC0F6FF060E14
:10185C00F76E0900F5CF13F00900F5CF14F009006D
:10186C00F5CF15F00A00F5CF16F0C2EC0DF00FC055
:10187C0028F010C029F011C02AF012C02BF0C1EFD3
:10188C000DF03450800A750FD8A04FEF0CF051EFCB
:10189C000CF0A1EF0CF0000E0A6E0A0E096E34501B
:1018AC00076E086A07BE0806D8EC16F00750040D40
:1018BC00F3CF2CF0240E2C262C50350F2D6E2DC072
:1018CC00F6FF060EF76E0900F5CF0FF00900F5CF05
:1018DC0010F00900F5CF11F00A00F5CF12F0000E50
:1018EC00046E0A0E036E3450016E026A01BE0206CB
:1018FC003AEC17F00150040DF350350F2E6E2EC03C
:10190C00F6FF060EF76E0900F5CF13F00900F5CFC0
:10191C0014F00900F5CF15F00A00F5CF16F0C2EC63
:10192C000DF00FC028F010C029F011C02AF012C021
:10193C002BF0C1EF0DF03450040DF350350F2C6E1D
:10194C002CC0F6FF060EF76E0900F5CF28F0090043
:10195C00F5CF29F00900F5CF2AF00A00F5CF2BF0CE
:10196C00C1EF0DF03450800A120FD8A0C0EF0CF06C
:10197C00C2EF0CF052EF0DF0000E0A6E0A0E096E5B
:10198C00000E046E640E036E3450016E026A01BECA
:10199C0002063AEC17F001C007F002C008F0D8ECD0
:1019AC0016F00750040DF3CF2CF0240E2C262C50DF
:1019BC00010F2D6E2DC0F6FF060EF76E0900F5CF48
:1019CC0013F00900F5CF14F00900F5CF15F00A005B
:1019DC00F5CF16F0000E0A6E640E096E3450076EC9
:1019EC00086A07BE0806D8EC16F00750040DF3CFB2
:1019FC002EF0480E2E262E50010F2F6E2FC0F6FF04
:101A0C00060EF76E0900F5CF0FF00900F5CF10F0B8
:101A1C000900F5CF11F00A00F5CF12F0C2EC0DF071
:101A2C000FC030F010C031F011C032F012C033F0E2
:101A3C0030C00FF031C010F032C011F033C012F0D2
:101A4C00000E046E0A0E036E3450016E026A01BE63
:101A5C0002063AEC17F00150040DF350010F2C6EF6
:101A6C002CC0F6FF060EF76E0900F5CF13F0090037
:101A7C00F5CF14F00900F5CF15F00A00F5CF16F0EC
:101A8C00C2EC0DF00FC028F010C029F011C02AF0E4
:101A9C0012C02BF0C1EF0DF03450800A750FD8A096
:101AAC005AEF0DF05CEF0DF0ACEF0DF0000E0A6E7E
:101ABC000A0E096E3450076E086A07BE0806D8EC89
:101ACC0016F00750040DF3CF2CF0240E2C262C50BE
:101ADC00010F2D6E2DC0F6FF060EF76E0900F5CF27
:101AEC000FF00900F5CF10F00900F5CF11F00A0046
:101AFC00F5CF12F0000E046E0A0E036E3450016E18
:101B0C00026A01BE02063AEC17F00150040DF350C4
:101B1C00010F2E6E2EC0F6FF060EF76E0900F5CFE4
:101B2C0013F00900F5CF14F00900F5CF15F00A00F9
:101B3C00F5CF16F0C2EC0DF00FC028F010C029F054
:101B4C0011C02AF012C02BF0C1EF0DF03450040D6F
:101B5C00F350010F2C6E2CC0F6FF060EF76E090029
:101B6C00F5CF28F00900F5CF29F00900F5CF2AF0C0
:101B7C000A00F5CF2BF012001250800B1B6E125086
:101B8C001224216E11AECDEF0DF0CFEF0DF0D0EF92
:101B9C000DF021802150D8B4D6EF0DF0D8EF0DF018
:101BAC00EBEF0DF02128D8A4DEEF0DF0E0EF0DF0F7
:101BBC00E8EF0DF0000E0F6E000E106E000E116EA1
:101BCC00000E126E118EF3EF0DF0000E0F6E000E64
:101BDC00106E000E116E000E126E1650800B1B1A3A
:101BEC0016501624206E15AEFEEF0DF000EF0EF021
:101BFC0001EF0EF020802050D8B407EF0EF009EF63
:101C0C000EF01CEF0EF02028D8A40FEF0EF011EF01
:101C1C000EF019EF0EF0000E136E000E146E000E87
:101C2C00156E000E166E158E24EF0EF0000E136E50
:101C3C00000E146E000E156E000E166E2050D8B4E9
:101C4C002AEF0EF02CEF0EF034EF0EF02150D8A44A
:101C5C0032EF0EF034EF0EF03EEF0EF0000E0F6E82
:101C6C00000E106E000E116E000E126ED6EF0FF0FD
:101C7C0015500F02F3CF26F0F4CF27F026501C6E30
:101C8C001D6A1E6A1F6A2750226E236A246A256AFF
:101C9C0014501002F3CF26F0F4CF27F026501C2658
:101CAC00000E1D221E221F2227502226000E232248
:101CBC002422252213501102F3CF26F0F4CF27F063
:101CCC0026501C26000E1D221E221F2227502226C3
:101CDC00000E2322242225221EC01FF01DC01EF040
:101CEC001CC01DF01C6A13501002F3CF26F0F4CF69
:101CFC0027F026501C2627501D22000E1E22000EF7
:101D0C001F2214500F02F3CF26F0F4CF27F02650E9
:101D1C001C2627501D22000E1E22000E1F221EC044
:101D2C001FF01DC01EF01CC01DF01C6A13500F02CA
:101D3C00F3CF26F0F4CF27F026501C2627501D2277
:101D4C00000E1E22000E1F2215501002F3CF26F09B
:101D5C00F4CF27F02650222627502322000E2422CF
:101D6C00000E252214501102F3CF26F0F4CF27F0E9
:101D7C002650222627502322000E2422000E252234
:101D8C0015501102F3CF26F0F4CF27F02650176E22
:101D9C002750186E196A1A6A19C01AF018C019F06F
:101DAC0017C018F0176A1750222618502322195002
:101DBC0024221A5025221CC017F01DC018F01EC07A
:101DCC0019F01FC01AF0190EF1EF0EF0D8901A325C
:101DDC00193218321732E82EECEF0EF0175022267B
:101DEC0018502322195024221A5025221EC01FF0ED
:101DFC001DC01EF01CC01DF01C6A205021C017F025
:101E0C00186A1726000E1822820E1724266EFF0E53
:101E1C001820276E27EF0FF0D89022362336243661
:101E2C0025361FAE1CEF0FF01EEF0FF01FEF0FF05B
:101E3C002280D8901C361D361E361F362606D8A09A
:101E4C00270624AE2CEF0FF02EEF0FF012EF0FF051
:101E5C00000E206E1FAE35EF0FF037EF0FF05BEF7B
:101E6C000FF0FF0E1C14176EFF0E1D14186EFF0ED4
:101E7C001E14196E7F0E1F141A6E1750181019109D
:101E8C001A10D8B44CEF0FF04EEF0FF052EF0FF0DA
:101E9C00010E206E5BEF0FF022A057EF0FF059EF01
:101EAC000FF05BEF0FF04EEF0FF02050D8B461EF56
:101EBC000FF063EF0FF087EF0FF0010E2226000EEC
:101ECC0023222422252225A06EEF0FF070EF0FF0B5
:101EDC0087EF0FF022C017F023C018F024C019F0C0
:101EEC0025C01AF01A341A3219321832173217C0A8
:101EFC0022F018C023F019C024F01AC025F0264A8D
:101F0C00272A27BE92EF0FF0275008E12628D8A0E9
:101F1C0092EF0FF094EF0FF09EEF0FF0000E226E89
:101F2C00000E236E800E246E7F0E256ECCEF0FF00C
:101F3C0027BEABEF0FF0275006E12604D8B0A9EF6F
:101F4C000FF0ABEF0FF0B7EF0FF0000E226E000E9C
:101F5C00236E000E246E000E256E000E1B6ECCEF51
:101F6C000FF026C021F0FF0E2216FF0E23167F0E57
:101F7C002416000E251621A0C6EF0FF0C8EF0FF0A7
:101F8C00C9EF0FF0248ED8902130256E1B502512EE
:101F9C0022C00FF023C010F024C011F025C012F0A5
:101FAC0012002B50800B386E2B502B243F6E2AAE18
:101FBC00E2EF0FF0E4EF0FF0E5EF0FF03F803F5052
:101FCC00D8B4EBEF0FF0EDEF0FF002EF10F03F286D
:101FDC00D8A4F3EF0FF0F5EF0FF0FDEF0FF0000EBC
:101FEC00286E000E296E000E2A6E000E2B6E2A8EA5
:101FFC00000E2B6E0AEF10F0000E286E000E296EEC
:10200C00000E2A6E000E2B6E2F50800B381A2F509C
:10201C002F24406E2EAE15EF10F017EF10F018EFC6
:10202C0010F040804050D8B41EEF10F020EF10F0AC
:10203C0035EF10F04028D8A426EF10F028EF10F060
:10204C0030EF10F0000E2C6E000E2D6E000E2E6E6A
:10205C00000E2F6E2E8E000E2F6E3DEF10F0000E28
:10206C002C6E000E2D6E000E2E6E000E2F6E2C5050
:10207C002D102E102F10D8A446EF10F048EF10F0B2
:10208C0060EF10F0000E286E000E296E000E2A6E06
:10209C00000E2B6E800E2A127F0E2B1238502B1234
:1020AC0028C028F029C029F02AC02AF02BC02BF018
:1020BC00A3EF11F03F50D8A466EF10F068EF10F0CA
:1020CC0072EF10F0000E286E000E296E000E2A6EB4
:1020DC00000E2B6EA3EF11F040503FC030F0316A70
:1020EC00305E000E315A7F0E3024396E000E3120D6
:1020FC003A6E28C034F029C035F02AC036F02BC017
:10210C0037F0000E286E000E296E000E2A6E000E9F
:10211C002B6E000E3B6E000E3C6E000E3D6E000EE4
:10212C003E6E000E406ED3EF10F04050D8B4A1EFCD
:10213C0010F0A3EF10F0BAEF10F0D890343635361B
:10214C0036363736D890283629362A362B363EAED8
:10215C00B2EF10F0B4EF10F0B5EF10F02880D8907B
:10216C003B363C363D363E362C50345C2D50355883
:10217C002E5036582F503758D8A0C7EF10F0C9EF53
:10218C0010F0D2EF10F03E8C2C50345E2D50355A9E
:10219C002E50365A2F50375A402A190E4064D9EF18
:1021AC0010F0DBEF10F09BEF10F0345035103610C0
:1021BC003710D8B4E4EF10F0E6EF10F0FEEF10F0AB
:1021CC003B80FEEF10F0D890283629362A362B3675
:1021DC003EAEF3EF10F0F5EF10F0F6EF10F02880B4
:1021EC00D8903B363C363D363E363906D8A03A06BA
:1021FC002AAE03EF11F005EF11F0E9EF10F0000E2D
:10220C00406E3EAE0CEF11F00EEF11F032EF11F00C
:10221C00FF0E3B14306EFF0E3C14316EFF0E3D145E
:10222C00326E7F0E3E14336E30503110321033103C
:10223C00D8B423EF11F025EF11F029EF11F0010EB6
:10224C00406E32EF11F028A02EEF11F030EF11F0AC
:10225C0032EF11F025EF11F04050D8B438EF11F0F7
:10226C003AEF11F05EEF11F0010E2826000E292234
:10227C002A222B222BA045EF11F047EF11F05EEF35
:10228C0011F028C030F029C031F02AC032F02BC038
:10229C0033F03334333232323132303230C028F012
:1022AC0031C029F032C02AF033C02BF0394A3A2A17
:1022BC003ABE69EF11F03A5008E13928D8A069EF1D
:1022CC0011F06BEF11F076EF11F0000E3A6E3968E9
:1022DC00000E286E000E296E000E2A6E000E2B6E5C
:1022EC003ABE83EF11F03A5006E13904D8B081EFD1
:1022FC0011F083EF11F091EF11F0000E3A6E000E19
:10230C00396E000E286E000E296E000E2A6E000E1D
:10231C002B6E000E386E39C03FF03FA098EF11F0D5
:10232C009AEF11F09DEF11F02A8E9EEF11F02A9E7C
:10233C00D8903F302B6E54EF10F01200366E6D0EAD
:10234C003664ABEF11F0ADEF11F051EF12F0000E5F
:10235C00136E000E146E000E156E3F0E166E000EF0
:10236C00096E640E086E36C006F0076A7DEC18F034
:10237C000650040DF3CF2CF0480E2C262C50350FA4
:10238C002D6E2DC0F6FF060EF76E0900F5CF0FF07F
:10239C000900F5CF10F00900F5CF11F00A00F5CFC8
:1023AC0012F0C2EC0DF00FC032F010C033F011C0BF
:1023BC0034F012C035F0000E096E0A0E086E000ED5
:1023CC00046E640E036E36C001F0026AB7EC18F0AE
:1023DC0001C006F002C007F07DEC18F00650040DA9
:1023EC00F3CF2CF0240E2C262C50350F2D6E2DC037
:1023FC00F6FF060EF76E0900F5CF13F00900F5CFC6
:10240C0014F00900F5CF15F00A00F5CF16F032C024
:10241C000FF033C010F034C011F035C012F0C2EC24
:10242C000DF00FC02EF010C02FF011C030F012C004
:10243C0031F02EC00FF02FC010F030C011F031C0B1
:10244C0012F0000E046E0A0E036E36C001F0026A22
:10245C00B7EC18F00150040DF350350F2C6E2CC056
:10246C00F6FF060EF76E0900F5CF13F00900F5CF55
:10247C0014F00900F5CF15F00A00F5CF16F0C2ECF8
:10248C000DF00FC028F010C029F011C02AF012C0B6
:10249C002BF0E6EF12F00A0E366457EF12F059EFFC
:1024AC0012F0BFEF12F0000E136E000E146E000E41
:1024BC00156E3F0E166E000E096E0A0E086E36C0B3
:1024CC0006F0076A7DEC18F00650040DF3CF2CF0E3
:1024DC00240E2C262C50350F2D6E2DC0F6FF060E1B
:1024EC00F76E0900F5CF0FF00900F5CF10F00900D9
:1024FC00F5CF11F00A00F5CF12F0C2EC0DF00FC0C1
:10250C0032F010C033F011C034F012C035F032C0CC
:10251C000FF033C010F034C011F035C012F0000EC3
:10252C00046E0A0E036E36C001F0026AB7EC18F0A6
:10253C000150040DF350350F2C6E2CC0F6FF060E17
:10254C00F76E0900F5CF13F00900F5CF14F0090070
:10255C00F5CF15F00A00F5CF16F0C2EC0DF00FC058
:10256C0028F010C029F011C02AF012C02BF0E6EFB1
:10257C0012F03650040DF350350F2C6E2CC0F6FFB4
:10258C00060EF76E0900F5CF0FF00900F5CF10F02D
:10259C000900F5CF11F00A00F5CF12F0000E136E02
:1025AC00000E146E000E156E3F0E166EC2EC0DF082
:1025BC000FC028F010C029F011C02AF012C02BF067
:1025CC001200096E0950D8B4EEEF12F0F0EF12F0D1
:1025DC0012EF13F004BEF7EF12F0F5EF12F012EF5A
:1025EC0013F001C005F002C006F003C007F004C0F0
:1025FC0008F0051E061E071E081E052A000E0622E0
:10260C000722082205C00BF006C00CF007C00DF025
:10261C0008C00EF01AEF13F001C00BF002C00CF062
:10262C0003C00DF004C00EF0015002100310041092
:10263C00D8A423EF13F025EF13F02FEF13F0000EB7
:10264C00016E000E026E000E036E000E046EC0EFE3
:10265C0013F0960E0A6E39EF13F00A2AD8900E3248
:10266C000D320C320B32000E0B14056E000E0C14D6
:10267C00066E000E0D14076EFE0E0E14086E05503D
:10268C00061007100810D8A44EEF13F050EF13F0FB
:10269C0033EF13F05EEF13F00A2A010E0B26000E37
:1026AC000C220D220E22D8900E320D320C320B322F
:1026BC00000E0B14056E000E0C14066E000E0D149D
:1026CC00076EFF0E0E14086E05500610071008104A
:1026DC00D8A473EF13F075EF13F052EF13F07DEFF6
:1026EC0013F00A06D8900B360C360D360E360DBE8E
:1026FC0082EF13F084EF13F08CEF13F0020E0A60EC
:10270C008AEF13F08CEF13F077EF13F00AB091EF20
:10271C0013F093EF13F094EF13F00D9ED8900A3250
:10272C000AC005F0066A076A086A05C008F0076A5D
:10273C00066A056A05500B1206500C1207500D1252
:10274C0008500E120950D8B4AEEF13F0B0EF13F0DE
:10275C00B8EF13F004BEB7EF13F0B5EF13F0B8EF0A
:10276C0013F00E8E0BC001F00CC002F00DC003F084
:10277C000EC004F012000F0EC16E000E926E000E11
:10278C00936EF40E946E050ECA6E050EBD6E010EA0
:10279C00CD6EE5EC19F018EC19F0050EBD6E8280CB
:1027AC0018EC19F082909E949EA4DFEF13F0E1EFE9
:1027BC0013F0DAEF13F0BECF97F0BFCF98F0040E02
:1027CC00BD6E9E949EA4EDEF13F0EFEF13F0E8EFC7
:1027DC0013F0BECF99F0BFCF9AF000019751995DDD
:1027EC00956F98519A59966FC00ED3EC19F095C00D
:1027FC008BF096C08CF00001D8908B378C37D8902A
:10280C008B378C378BC001F08CC002F0036A046AE2
:10281C00000EE7EC12F001C028F002C029F003C052
:10282C002AF004C02BF0800E2C6E960E2D6E980E96
:10283C002E6E4B0E2F6ED7EC0FF028C08DF029C0EA
:10284C008EF02AC08FF02BC090F0000E2C6E000E74
:10285C002D6E000E2E6E400E2F6E000E136EFC0EA3
:10286C00146E050E156E470E166E8DC00FF08EC0D1
:10287C0010F08FC011F090C012F0C2EC0DF00FC030
:10288C0028F010C029F011C02AF012C02BF0D7ECA0
:10289C000FF028C041F029C042F02AC043F02BC0F1
:1028AC0044F08F0E456EC20E466E750E476E3D0E91
:1028BC00486E44EC09F041C091F042C092F043C024
:1028CC0093F044C094F0800ED3EC19F0970E066E82
:1028DC000650D8A4060E076EE9EC18F091C07DF0F6
:1028EC0092C07EF093C07FF094C080F099EC19F008
:1028FC00D1EF13F000EF00F003C009F00A6A0B6A85
:10290C000234093601E30A800950116E1150D8A423
:10291C0092EF14F094EF14F09EEF14F0000E016E91
:10292C00000E026E000E036E000E046E2CEF15F0FE
:10293C0007C009F00A6A0B6A0634093601E30A80FB
:10294C000950106E1050D8A4AEEF14F0B0EF14F084
:10295C00B2EF14F094EF14F0028EFF0E0116FF0E7E
:10296C000216000E0316068EFF0E0516FF0E061637
:10297C00000E0716000E0C6E000E0D6E000E0E6E85
:10298C00000E0F6E7F0E115E1050980F115E180E18
:10299C00106ED8900C360D360E360F360550015C85
:1029AC000650025807500358D8A0DFEF14F0E1EF9F
:1029BC0014F0E8EF14F00550015E0650025A07506F
:1029CC00035A0C80D890013602360336102ECFEF06
:1029DC0014F011BEF6EF14F0F4EF14F00CEF15F048
:1029EC001150800A970FD8B0FEEF14F000EF15F0DD
:1029FC0002EF15F094EF14F0D8900F320E320D3226
:102A0C000C32113E02EF15F024EF15F0170E116485
:102A1C0012EF15F014EF15F01CEF15F094EF14F005
:102A2C00D8900C360D360E360F3611061150D8A430
:102A3C0022EF15F024EF15F016EF15F00CC001F095
:102A4C000DC002F00EC003F00FC004F012000334EE
:102A5C0004340E6E0E50D8A436EF15F038EF15F086
:102A6C0042EF15F0000E016E000E026E000E036EAA
:102A7C00000E046ED2EF15F0073408340D6E0D50B5
:102A8C00D8A44BEF15F04DEF15F04FEF15F038EFD4
:102A9C0015F0038EFF0E0116FF0E0216FF0E031625
:102AAC00000E0416078EFF0E0516FF0E0616FF0EFF
:102ABC000716000E0816000E096E000E0A6E000EA8
:102ACC000B6E000E0C6E7F0E0E5E0D50A00F0E5E88
:102ADC00200E0D6ED89009360A360B360C36055082
:102AEC00015C065002580750035808500458D8A0EF
:102AFC0082EF15F084EF15F08DEF15F00550015EA7
:102B0C000650025A0750035A0850045A0980D890AC
:102B1C0001360236033604360D2E70EF15F00EBE5C
:102B2C009CEF15F09AEF15F0B2EF15F00E50800AED
:102B3C009F0FD8B0A4EF15F0A6EF15F0A8EF15F085
:102B4C0038EF15F0D8900C320B320A3209320E3EA7
:102B5C00A8EF15F0CAEF15F01F0E0E64B8EF15F0C4
:102B6C00BAEF15F0C2EF15F038EF15F0D890093622
:102B7C000A360B360C360E060E50D8A4C8EF15F0DC
:102B8C00CAEF15F0BCEF15F009C001F00AC002F055
:102B9C000BC003F00CC004F01200373438343E6E16
:102BAC003E50D8A4DCEF15F0DEEF15F0E8EF15F091
:102BBC00000E356E000E366E000E376E000E386E3F
:102BCC0055EF16F035C039F036C03AF037C03BF04F
:102BDC0038C03CF0200EF8EF15F0D8903C323B3268
:102BEC003A323932E82EF3EF15F039503D6E378E0C
:102BFC00FF0E3516FF0E3616FF0E3716000E381662
:102C0C00960E3E5E3EBE0FEF16F00DEF16F025EF62
:102C1C0016F03E50800A970FD8B017EF16F019EF48
:102C2C0016F01BEF16F0DEEF15F0D8903832373275
:102C3C00363235323E3E1BEF16F03DEF16F01F0ECE
:102C4C003E642BEF16F02DEF16F035EF16F0DEEF9D
:102C5C0015F0D89035363636373638363E063E5077
:102C6C00D8A43BEF16F03DEF16F02FEF16F03D50C9
:102C7C00D8B443EF16F045EF16F04DEF16F0381EB2
:102C8C00371E361E356C000E36223722382235C0E0
:102C9C0035F036C036F037C037F038C038F0120097
:102CAC00000E0114096E000E02140A6E800E03143D
:102CBC000B6E7F0E04140C6E09500A100B100C10C6
:102CCC00D8A46BEF16F06DEF16F075EF16F0000E42
:102CDC00016E000E026E000E036E000E046E000EEE
:102CEC000514096E000E06140A6E800E07140B6E86
:102CFC007F0E08140C6E09500A100B100C10D8A47F
:102D0C008AEF16F08CEF16F094EF16F0000E056EAD
:102D1C00000E066E000E076E000E086E04AE99EFE4
:102D2C0016F09BEF16F0A4EF16F0016C021ED8B053
:102D3C00022A031ED8B0032A800E045608AEA9EF4F
:102D4C0016F0ABEF16F0B4EF16F0056C061ED8B00B
:102D5C00062A071ED8B0072A800E0856000E011A44
:102D6C00000E021A000E031A800E041A000E051A29
:102D7C00000E061A000E071A800E081A0550015C88
:102D8C00065002580750035808500458D8B0D1EFD9
:102D9C0016F0D3EF16F0D6EF16F0D890D7EF16F05A
:102DAC00D8801200000E0C6E0ABEE1EF16F0DFEFB9
:102DBC0016F0E7EF16F0096C0A1ED8B00A2A010EBD
:102DCC000C6E08BEEEEF16F0ECEF16F0F4EF16F00A
:102DDC00076C081ED8B0082A010E0C1A000E0E6ED5
:102DEC00000E0D6E09500A10D8B4FFEF16F001EF6B
:102DFC0017F029EF17F0010E0B6E09EF17F0D890B2
:102E0C0009360A360B2A0AAE0EEF17F010EF17F040
:102E1C0005EF17F0D8900D360E360950075C0A50A6
:102E2C000858D8A01CEF17F01EEF17F023EF17F07F
:102E3C000950075E0A50085A0D80D8900A320932A0
:102E4C000B2E10EF17F00C50D8B42FEF17F031EF0A
:102E5C0017F035EF17F00D6C0E1ED8B00E2A0DC002
:102E6C0007F00EC008F01200000E066E02BE43EF13
:102E7C0017F041EF17F049EF17F0016C021ED8B0B4
:102E8C00022A010E066E04BE50EF17F04EEF17F03B
:102E9C0054EF17F0036C041ED8B0042A035004102E
:102EAC00D8B45BEF17F05DEF17F081EF17F0010E60
:102EBC00056E65EF17F0D89003360436052A04AE7C
:102ECC006AEF17F06CEF17F061EF17F00350015C2D
:102EDC0004500258D8A075EF17F077EF17F07BEF7E
:102EEC0017F00350015E0450025AD890043203329A
:102EFC00052E6CEF17F00650D8B487EF17F089EF5A
:102F0C0017F08DEF17F0016C021ED8B0022A01C029
:102F1C0001F002C002F01200000E0114096E000E46
:102F2C0002140A6E800E03140B6E7F0E04140C6ECA
:102F3C0009500A100B100C10D8A4A7EF17F0A9EF2A
:102F4C0017F0B1EF17F0000E016E000E026E000EBE
:102F5C00036E000E046E000E0514096E000E0614AE
:102F6C000A6E800E07140B6E7F0E08140C6E09503F
:102F7C000A100B100C10D8A4C6EF17F0C8EF17F0FE
:102F8C00D0EF17F0000E056E000E066E000E076EE9
:102F9C00000E086E055001180FE1065002180CE1E6
:102FAC000750031809E108500418D8B4E0EF17F0E3
:102FBC00E2EF17F0E5EF17F0D890E6EF17F0D880B6
:102FCC001200000E096E000E0A6E000E0B6E000E43
:102FDC000C6E0550061007100810D8B4F8EF17F057
:102FEC00FAEF17F030EF18F0010E0D6E04EF18F039
:102FFC00D89005360636073608360D2A08AE09EF86
:10300C0018F00BEF18F0FEEF17F0D89009360A36CF
:10301C000B360C360550015C06500258075003580D
:10302C0008500458D8A01DEF18F01FEF18F028EF27
:10303C0018F00550015E0650025A0750035A08500A
:10304C00045A0980D89008320732063205320D2E08
:10305C000BEF18F009C001F00AC002F00BC003F02E
:10306C000CC004F012000550061007100810D8B45C
:10307C0042EF18F044EF18F074EF18F0010E096EDF
:10308C004EEF18F0D8900536063607360836092A62
:10309C0008AE53EF18F055EF18F048EF18F0055044
:1030AC00015C065002580750035808500458D8A029
:1030BC0062EF18F064EF18F06CEF18F00550015E39
:1030CC000650025A0750035A0850045AD890083236
:1030DC00073206320532092E55EF18F001C001F007
:1030EC0002C002F003C003F004C004F01200000E92
:1030FC000B6E000E0A6E08500910D8B488EF18F049
:10310C008AEF18F0B2EF18F0010E0C6E92EF18F077
:10311C00D890083609360C2A09AE97EF18F099EFBB
:10312C0018F08EEF18F0D8900A360B360850065C63
:10313C0009500758D8A0A5EF18F0A7EF18F0ACEF7E
:10314C0018F00850065E0950075A0A80D8900932C8
:10315C0008320C2E99EF18F00AC006F00BC007F0DD
:10316C00120003500410D8B4BEEF18F0C0EF18F0E2
:10317C00E4EF18F0010E056EC8EF18F0D890033686
:10318C000436052A04AECDEF18F0CFEF18F0C4EFDB
:10319C0018F00350015C04500258D8A0D8EF18F076
:1031AC00DAEF18F0DEEF18F00350015E0450025A0B
:1031BC00D89004320332052ECFEF18F001C001F085
:1031CC0002C002F01200FFEF18F006C0F6FF07C0B5
:1031DC00F7FFF86A050EF76403D00800F55005D028
:1031EC00F6CFE9FFF7CFEAFFEF50C0EC19F0064A33
:1031FC00072A06C0F6FF07C0F7FFF86A050EF7644A
:10320C0003D00800F55005D0F6CFE9FFF7CFEAFF61
:10321C00EF500009D8A415EF19F017EF19F0EBEFE8
:10322C0018F01200000E026E000E016E000E046EFD
:10323C00000E036E034A042A04BE2EEF19F004504C
:10324C0009E10A0E035CD8A02EEF19F030EF19F04B
:10325C0020EF19F0014A022A02BE3EEF19F002508B
:10326C0009E11E0E015CD8A03EEF19F040EF19F0F9
:10327C001CEF19F01200000E551A000E561A000E13
:10328C00571A800E581A51C041F052C042F053C028
:10329C0043F054C044F055C045F056C046F057C0FA
:1032AC0047F058C048F044EC09F041C051F042C01E
:1032BC0052F043C053F044C054F0120001500210BD
:1032CC0003100410D8B46DEF19F06FEF19F077EF0D
:1032DC0019F0000E011A000E021A000E031A800ECD
:1032EC00041A01C001F002C002F003C003F004C0D4
:1032FC0004F01200036E000E026E3A0E036089EFAA
:10330C0019F08BEF19F095EF19F02F0E036491EF74
:10331C0019F093EF19F095EF19F0010E026E02C03F
:10332C0001F001301200810E596E910E5A6E7DC063
:10333C005BF07EC05CF07FC05DF080C05EF04EEC58
:10334C0003F0810E066E076AE9EC18F012000150CA
:10335C000302F3CF05F0F4CF06F001500402F35052
:10336C00062602500302F350062605C001F006C0E3
:10337C0002F01200056E0550F00B816E8180818287
:10338C0018EC19F081920538F00BF00B816E8180EE
:10339C00818218EC19F081921200056E0550F00B29
:1033AC00816E8190818218EC19F081920538F00BB6
:1033BC00F00B816E818218EC19F081921200020ED2
:1033CC00D3EC19F0280ED3EC19F0010ED3EC19F054
:1033DC000E0ED3EC19F0680EC0EC19F01200000EB2
:0833EC00F86E0001C1EF13F0BF
:00000001FF
